:020000020000FC
:1000E400642F407C11F4552359F0462F652F5E7F11
:1000F40061F0507F99F0507CD1F0562F65E008955F
:10010400562F550F550F61E0089560FB57F9662788
:1001140046956795542B462F62E008954295542FD7
:100124005F70407F6295607F562B63E00895562F81
:10013400440F551F440F551F64E00895202F007C81
:1001440011F4112359F0022F212F1E7F61F0107F2B
:1001540099F0107CD1F0122F25E00895122F110F81
:10016400110F21E0089520FB17F922270695279502
:10017400102B022F22E008950295102F1F70007F8C
:100184002295207F122B23E00895122F000F111FB8
:10019400000F111F24E008951091C00015FFFCCF3B
:1001A4002093C60008952091C00027FFFCCF209122
:0401B400C6000895E4
:040064000C94DC001C
:1001B800112715B9F6DF222EF4DF022F27FC08C01D
:1001C800F999FECF01BD12BDF89A20B5E3DF189565
:1001D800E8DFF999FECF01BD12BD20BDFA9AF99A60
:1001E8001895F999FECF21BD12BDF89A00B508956A
:1001F800F999FECF21BD12BDF89A00B50D9323954C
:100208000027101F3A95A1F70895F999FECF21BD4F
:1002180012BD00BDFA9AF99A089570E14091010261
:100228004030B9F41BC14091360350910202442377
:1002380041F440910302540F48F442E04093010214
:1002480050C140910402541B08F4552750930202F0
:1002580003C0423009F4DDC07A9540910102403074
:1002680011F41FC103C04230A9F4C0C0F89482C180
:1002780044274093B200409100024093B1009FEFA1
:0C02880078949923F1F7772339F7C7CF5A
:040034000C944A01DD
:1002940099279093B100189540910502403039F0A8
:1002A400423001F1A7E3B2E0CFE0D2E004C0A7E41A
:1002B400B2E0C3E1D2E04427A70FB41F9C91472FBB
:1002C40046954695C40F4427D41F4881440F440FD4
:1002D400572F5370450FC7E5D2E0C40F4427D41FEE
:1002E4008881C6CFA7E1B2E0472F440FA40F44276B
:1002F400B41F9D918C91BCCF42E040930502409184
:10030400070250910802509329014093280140911B
:100314000602409321012AE010E065DF402F2BE024
:1003240010E061DF502F809102039091030348177E
:10033400590748F4082F2AE010E069DF092F2BE061
:1003440010E065DFAC01CFE0D2E008D0C3E1D2E039
:10035400409102035091030301D061CF63E0483E12
:100364005607E0F46BE069836A836B8390E0662749
:100374004436560720F093954456560BF9CF9923EB
:1003840011F0999390E84A3018F093954A50FBCFB6
:10039400992311F09F7799934993089569E069939C
:0A03A400699369936AE06883089585
:0400BC000C94D701C8
:1003AE000027009321010093250100932401009161
:1003BE000502003041F000E010910A0220910B027C
:1003CE003091090207C001E010910D0220910E023A
:1003DE0030910C02009305022093290110932801FD
:1003EE003093210118954091870242954F707417F2
:1003FE0018F4B2E0AAEA02C0B2E0AAE8472F440F0E
:10040E00A40F4427B41F9D918C912DCF409136039C
:10041E0050918702442339F040918802540F40F4E2
:10042E00509301025FC040918902541B08F4552776
:10043E00509387020ECF451730F4A52EA41AA61698
:10044E0040F0460F0895A42EA51AA61610F0461BCE
:10045E000895452F089540913603442389F0509115
:10046E0035034091CD026091CB02E5DF4093CD0282
:10047E004091CC026091CA02DEDF4093CC0209C0EB
:10048E004091CC025091CD026091CA02D4DF4093CC
:10049E00CC0242954F704093CE02C2CEB2E0A0ED98
:1004AE0043E0479F4427A00DB41F9D918C9140912E
:1004BE00CE02471B0AF44195B3E0A4E0A40F4427F3
:1004CE00B41F4C91582F542311F4842BCCCE41E001
:1004DE004093010244274093910009CF4427409353
:0E04EE009100B1CE4091FF0240939100A1CF4A
:040080000C947E025C
:1004FC00A0910203B09103031196A0930203B09351
:10050C000303009100030A9511F50091A4000370F8
:10051C00E4E2F3E01127000F111FE00FF11F3190FF
:10052C002080AFECB2E010E12227220C331C18F42F
:10053C00E4E1F3E020E1222319F02A95019101C0B6
:10054C0000270C9313961A9581F7009101030093E1
:10055C000003AFECB2E000E11C9116951D931C91C9
:10056C0017951D931C9117951D930A95A9F718952E
:10057C0040E150E39695879508F450E158B95064E2
:10058C0058B95F7B58B94A95A1F750E958B950E171
:0E059C0058B94FE0471B542B58B948B967CEE9
:0400A8000C94D502DD
:1005AA0000E400930B0100270093A1000093A5002B
:1005BA000093A4000091720005FD39C00091310337
:1005CA001091320320903303309034032016310601
:1005DA0070F540902D0350902E0360902F03709079
:1005EA00300322273FEF8301832E321B3230B8F0CB
:1005FA00320F0215130599F048F42801282D060D2B
:10060A00171D17950795830E8794EFCF3801382D5C
:10061A00040D151D17950795820E8794E6CF009154
:10062A003503080D0795009335030FEF04C005E362
:10063A000A95F1F700270093360305B902E209BBD0
:10064A0002E200937200002700930B0100912C0331
:06065A000093A1001895B9
:0400A4000C94300385
:100660002090A6003090A7000091A10006FF0AC0CC
:1006700020923303309234030091A1000F7B00934A
:10068000A10018950091330310913403201A310A08
:10069000209233033092340302E0009372001895E5
:040044000C945003C5
:1006A000E0913703F0913803419145BD442309F0AF
:1006B00040E243BB419147BD4427409381004093B2
:1006C0008500409384004191409381004191409383
:1006D0008900419140938800E0933703F0933803F9
:0206E00018956B
:040000000C947103E8
:1006E200F89441E24EBF4FEF4DBF40E844B9442772
:1006F20045B94FEF47B940E04093C50047E6409304
:10070200C40040E04093C00048E94093C10046E87D
:100712004093C20044274093A0004093A10040931D
:10072200A20042E24093720040E440930A0125E1B4
:1007320010E05ADD00932D0326E110E055DD009311
:100742002E0327E110E050DD00932F0328E110E093
:100752004BDD0093300329E110E046DD00933103C5
:100762002AE110E041DD0093320323E110E03CDD99
:10077200402F24E110E038DD502F0E947200606C9F
:100782005093A9004093A80060932C030E94D502C5
:10079200442743BB42E144BD442745BD442740931F
:1007A2008000409381004093820042E040936F00BA
:1007B20044274093B0004093B10042E04093700060
:1007C20044274093020242E04093010222E010E0FB
:1007D2000BDD0093030223E010E006DD0093040228
:1007E20020E010E001DD402F21E010E0FDDC502F81
:1007F2000E9472005093B30060930002442740931A
:1008020087022CE010E0F0DC009389022DE010E07A
:10081200EBDC0093880223E410E0AAE8B2E030E2C5
:10082200EADC23E610E0AAEAB2E030E2E4DC4427A4
:1008320040939000409391004093920042E0409395
:100842007100AFECB2E0662740E36D934A95E9F799
:1008520041E0409300034427409302034093030383
:1008620047E04093CE024FE74093CC024093CD0243
:100872002BE210E0A4E0B3E030E1BDDC2BE110E0BC
:10088200A4E1B3E030E1B7DC2BE310E0A4E2B3E093
:1008920038E0B1DC2EE010E0A7DC009301032FE08A
:1008A20010E0A2DC0093CA0220E110E09DDC00937C
:1008B200CB0221E110E098DC402F22E110E094DC31
:1008C200502F0FDC5093990040939800686060931A
:1008D200FF024427409320014093210140932201CB
:1008E20042E04093730042E04093050223EC10E0A3
:1008F200A7E1B2E030E27FDC23EB10E0A7E4B2E054
:1009020030E179DC23EE10E0A7E3B2E030E173DC02
:1009120023E810E0A7E5B2E030E36DDC24E010E06C
:1009220063DC402F25E010E05FDC502F0E94720054
:1009320040930702509308026093060226E010E0FB
:1009420053DC402F27E010E04FDC502F0E94720052
:1009520040930A0250930B026093090228E010E0D0
:1009620043DC402F29E010E03FDC502F0E94720050
:1009720040930D0250930E0260930C02789450CC77
:00000001FF
