:020000020000FC
:1000E400642F407C11F4552359F0462F652F5E7F11
:1000F40061F0507F99F0507CD1F0562F65E008955F
:10010400562F550F550F61E0089560FB57F9662788
:1001140046956795542B462F62E008954295542FD7
:100124005F70407F6295607F562B63E00895562F81
:10013400440F551F440F551F64E00895202F007C81
:1001440011F4112359F0022F212F1E7F61F0107F2B
:1001540099F0107CD1F0122F25E00895122F110F81
:10016400110F21E0089520FB17F922270695279502
:10017400102B022F22E008950295102F1F70007F8C
:100184002295207F122B23E00895122F000F111FB8
:08019400000F111F24E0089583
:0400A8000C94CE00E6
:10019C0000E400930B0100270093A1000093A5003D
:1001AC000093A400009100020093A90000910102A9
:1001BC000093A8000091720005FD35C00091070264
:1001CC001091080220900B0230900C022016310680
:1001DC0050F540900302509004026090050270901C
:1001EC00060222273FEF8301832E321B3230B8F0F8
:1001FC00320F0215130599F048F42801282D060D2D
:10020C00171D17950795830E8794EFCF3801382D5E
:10021C00040D151D17950795820E8794E6CF8092D5
:10022C0009020FEF01C0002700930A0202E20093BB
:10023C007200002700930B01009102020093A100B1
:02024C00189503
:0400A4000C94270190
:10024E002090A6003090A7000091A10006FF0AC0E2
:10025E0020920B0230920C020091A1000F7B0093B2
:10026E00A100189500910B0210910C02201A310A70
:10027E0020920B0230920C0202E00093720018954D
:10028E001091C00015FFFCCF2093C6000895209159
:0C029E00C00027FFFCCF2091C60008958F
:040064000C945501A2
:1002AA00F8DF222EF6DF022F27FCF3DF122D1F7351
:1002BA0026FC0EC0F999FECF01BD12BD27FC04C071
:1002CA00F89A20B5DFDF189520BDFA9AF99A1895A1
:1002DA00EF93FF93F80127FC03C02081D3DF01C00D
:0802EA002083FF91EF911895AC
:040000000C947901E2
:1002F20041E24EBF4FEF4DBF40E844B9442745B9F4
:100302004FEF47B940E04093C50047E64093C40031
:1003120040E04093C00048E94093C10046E8409362
:10032200C20044274093A0004093A1004093A20042
:1003320042E24093720040E440930A0146E4409353
:10034200030240E0409304024AEF4093050240E07A
:10035200409306024CE24093070241E040930802B8
:100362004AEA53E00E947200606C4093010250938B
:100372000002609302020E94CE00789440E14A9506
:10038200509109025695569556955695541719F05F
:100392005527662703C050910A026FEFF89470E167
:1003A20080E35695679508F480E188B9806488B93E
:1003B2008F7B88B97A95A1F780E988B980E188B9FD
:0E03C200842B88B948B978944423C9F6D7CF64
:00000001FF
