:020000020000FC
:0400A8000C94720042
:1000E40010E410930B0111271093A1001093A500A5
:1000F4001093A40015E31A95F1F7000012E210938F
:100104007200112710930B0113EC1093A1001895A2
:0400A4000C948A002E
:100114001091A6002091A7003091A10036FF0AC0DB
:1001240020930002109301021091A1001F7B1093F1
:10013400A10018953091010240910002131B240B79
:1001440020930002109301023091C00035FFFCCFD0
:100154002093C6003091C00035FFFCCF1093C60039
:0801640012E0109372001895DF
:040000000C94B600A6
:10016C0001E20EBF0FEF0DBF00E804B9002705B97F
:10017C000FEF07B900E00093C50007E60093C40039
:10018C0000E00093C00008E90093C10006E800936A
:10019C00C20000270093A00000E80093A1000027F4
:1001AC000093A20000270093A5000093A40002E294
:1001BC00009372000AE30093A90008E90093A800D9
:1001CC0000E400930A010E947200789470E1872F7A
:1001DC0093E030E140E38695979508F440E148B907
:1001EC00406448B94F7B48B93A95A1F740E948B902
:1001FC0040E148B9472B48B978B99FEF9A95F1F788
:06020C007A9529F7E3CF0B
:040064000C940901EE
:0C0212002091C60028EB2093C100189535
:040068000C940F01E4
:0E021E002BE22093C60028E92093C10018951A
:00000001FF
