:020000020000FC
:1000E400642F407C11F4552359F0462F652F5E7F11
:1000F40061F0507F99F0507CD1F0562F65E008955F
:10010400562F550F550F61E0089560FB57F9662788
:1001140046956795542B462F62E008954295542FD7
:100124005F70407F6295607F562B63E00895562F81
:10013400440F551F440F551F64E00895202F007C81
:1001440011F4112359F0022F212F1E7F61F0107F2B
:1001540099F0107CD1F0122F25E00895122F110F81
:10016400110F21E0089520FB17F922270695279502
:10017400102B022F22E008950295102F1F70007F8C
:100184002295207F122B23E00895122F000F111FB8
:10019400000F111F24E008951091C00015FFFCCF3B
:1001A4002093C60008952091C00027FFFCCF209122
:0401B400C6000895E4
:040064000C94DC001C
:1001B800112715B9F6DF222EF4DF022F27FC08C01D
:1001C800F999FECF01BD12BDF89A20B5E3DF189565
:1001D800E8DFF999FECF01BD12BD20BDFA9AF99A60
:1001E8001895F999FECF61BD52BDF89A40B50895AA
:1001F800F999FECF61BD52BDF89A40B54D9363950C
:100208004427541F7A95A1F70895F999FECF61BD47
:1002180052BD40BDFA9AF99A089590E140910102C1
:100228004030B9F4CFC040911603509102024423E4
:1002380041F440910302540F48F442E04093010214
:1002480004C140910402541B08F45527509302023C
:1002580003C0423009F491C09A95409101024030A0
:1002680011F4D3C003C04230A9F474C0F8941BC180
:1002780044274093B200409100024093B1008FEFB1
:0C02880078948823F1F7992339F7C7CF49
:040034000C944A01DD
:1002940088278093B100189540910502403029F0D9
:1002A400AFE0B2E0C7E0D2E004C0AFE2B2E0CBE03E
:1002B400D2E04427A90FB41F8C91492F4695469547
:1002C400C40F4427D41F4881440F440F592F53703F
:1002D400450FCFE4D2E0C40F4427D41F7881C8CFA0
:1002E4004091060240932101C7E0D2E048EE53E07A
:1002F40006D0CBE0D2E044E650E001D090CF63E0FA
:10030400483E5607E0F46BE069836A836B8380E0C0
:1003140066274436560720F083954456560BF9CF8A
:10032400882311F0899380E84A3018F083954A5065
:10033400FBCF882311F08F7789934993089569E05F
:0C0344006993699369936AE068830895E7
:0400BC000C94A801F7
:1003500000910502009500930502189540917F02D7
:1003600042954F70941718F4B2E0A2EA02C0B2E0CE
:10037000A2E8492F440FA40F4427B41F8D917C910C
:1003800079CF4091160350917F02442339F0409178
:100390008002540F40F4509301025FC040918102EB
:1003A000541B08F4552750937F025ACF451730F459
:1003B000A52EA41AA61640F0460F0895A42EA51A3D
:1003C000A61610F0461B0895452F08954091160378
:1003D000442389F0509115034091C5026091C302F6
:1003E000E5DF4093C5024091C4026091C202DEDFA6
:1003F0004093C40209C04091C4025091C50260916B
:10040000C202D4DF4093C40242954F704093C602AB
:100410000ECFB2E0A8EC43E0499F4427A00DB41FE3
:100420008D917C914091C602491B0AF44195B2E03E
:10043000ACEFA40F4427B41F4C91572F542311F451
:10044000742B18CF41E04093010244274093910060
:1004500049CF442740939100FDCE4091F70240934D
:040460009100A1CF97
:040080000C943202A8
:10046400A091FA02B091FB021196A093FA02B09304
:10047400FB020091F8020A9539F403E00093C702E5
:100484000093CD020091F9020093F802A7ECB2E0C8
:1004940000E11C9116951D931C9117951D931C91B9
:1004A40017951D930A95A9F7189540E150E3869591
:1004B400779508F450E158B9506458B95F7B58B93E
:1004C4004A95A1F750E958B950E158B94FE0491B92
:0804D400542B58B948B9CECEF3
:0400A8000C946E0244
:1004DC0000E400930B0100270093A1000093A500FA
:1004EC000093A4000091720005FD39C00091110326
:1004FC001091120320901303309014032016310630
:10050C0070F540900D0350900E0360900F037090A7
:10051C00100322273FEF8301832E321B3230B8F0B9
:10052C00320F0215130599F048F42801282D060DF9
:10053C00171D17950795830E8794EFCF3801382D2B
:10054C00040D151D17950795820E8794E6CF009123
:10055C001503080D0795009315030FEF04C005E371
:10056C000A95F1F700270093160305B902E209BBBF
:10057C0002E200937200002700930B0100910C0320
:06058C000093A100189588
:0400A4000C94C902ED
:100592002090A6003090A7000091A10006FF0AC09B
:1005A20020921303309214030091A1000F7B009359
:1005B200A10018950091130310911403201A310A17
:1005C200209213033092140302E0009372001895F4
:040000000C94E90271
:1005D200F89441E24EBF4FEF4DBF40E844B9442783
:1005E20045B94FEF47B940E04093C50047E6409315
:1005F200C40040E04093C00048E94093C10046E88F
:100602004093C20044274093A0004093A10040932E
:10061200A20042E24093720040E440930A016FE07C
:1006220050E0E2DD40930D0360E150E0DDDD4093F8
:100632000E0361E150E0D8DD40930F0362E150E028
:10064200D3DD4093100363E150E0CEDD409311030C
:1006520064E150E0C9DD409312036DE050E0C4DD77
:10066200442F6EE050E0C0DD542F0E947200606C97
:100672005093A9004093A80060930C030E946E025D
:1006820044274093B0004093B10042E04093700091
:1006920044274093020242E04093010262E050E0AC
:1006A200A3DD4093030263E050E09EDD4093040229
:1006B20060E050E099DD442F61E050E095DD542F79
:1006C2000E9472005093B30060930002442740934B
:1006D2007F0266E050E088DD4093810267E050E0EF
:1006E20083DD4093800265E250E0A2E8B2E070E26E
:1006F20082DD65E450E0A2EAB2E070E27CDD4427EC
:1007020040939000409391004093920042E04093C6
:100712007100A7ECB2E0662740E36D934A95E9F7D2
:1007220041E04093F80244274093FA024093FB02CF
:1007320065E150E0ACEFB2E070E15DDD68E050E011
:1007420053DD4093F90269E050E04EDD4093C2026E
:100752006AE050E049DD4093C3026BE050E044DDC3
:10076200442F6CE050E040DD542FBBDC50939900E5
:100772004093980068606093F702442740932001F9
:10078200409321014093220142E04093730040E0F4
:100792004093050265E950E0AFE2B2E070E22BDD82
:1007A20065EA50E0AFE0B2E070E225DD65E650E0D8
:1007B200AFE4B2E070E31FDD64E050E015DD442FEA
:1007C20065E050E011DD542F0E9472005093290120
:0E07D20040932801686060930602789421CD60
:00000001FF
