:020000020000FC
:0200A4000FC18A
:0200B80049C13C
:0200A80022C173
:0200BC005CC125
:02000000E9C154
:1000E4000F930027661F001F071B18F4070F88943F
:1000F40001C00894661F001F071B18F4070F88949B
:1001040001C00894661F001F071B18F4070F88948A
:1001140001C00894661F001F071B18F4070F88947A
:1001240001C00894661F001F071B18F4070F88946A
:1001340001C00894661F001F071B18F4070F88945A
:1001440001C00894661F001F071B18F4070F88944A
:1001540001C00894661F001F071B18F4070F88943A
:1001640001C00894661F702F0F9108959F9390917A
:10017400C00095FFFCCF9F919093C60008959F9374
:100184009591903011F0F2DFFBCF9F9108958F93FA
:100194006F937F939F93682F74E6A2DF862F60305E
:1001A40019F0962F905DE2DF672F7AE099DF6030D7
:1001B40011F4803019F0962F905DD8DF972F905D61
:1001C400D5DF9F917F916F918F9108950F931F9326
:1001D40010E805B1012705B91F910F9108950F93F8
:1001E40005B1006805B90F9108950F9305B100702A
:1001F40005B90F9108952419350931F420E8422EE8
:1002040027E12A95F1F759C0532E3FE0432E30E001
:1002140022345306F8F130E02F355306E0F130E094
:100224002C375306C8F130E029395306B0F130E0D9
:10023400263B530698F130E0223D530680F130E02E
:100244002F3E530668F131E02C30530650F131E073
:100254002932530638F131E02634530620F131E0D7
:100264002336530608F131E020385306F0F031E02C
:100274002D395306D8F031E02A3B5306C0F031E063
:10028400273D5306A8F032E02E3E530690F020E8B6
:10029400422E14C04A944A944A944A944A944A94E2
:1002A4004A944A944A944A944A944A944A944A945A
:1002B4004A9420E124192A95F1F70895000008953D
:1002C4002091A1002B3889F04090A6005090A700FF
:1002D4002BE82093A1009201245B334E3093A900B4
:1002E4002093A80022E229BB189520E820930B0153
:1002F40028E02093A10022272093720020E137E216
:10030400309329012093280122272093250120934B
:1003140024012091A6003091A7006DDF47FE242C14
:1003240022E22093730022E229BB2ABB2BEC209308
:10033400210140902601509027012DE02A95F1F7E4
:10034400222720930B011895209121012B3889F045
:1003540040902601509027012BE82093210192011F
:10036400245B334E309329012093280122E22ABBD7
:10037400189520E420930B0128E0209321012227E3
:100384002093730020E137E23093A9002093A80062
:1003940022272093A5002093A400209126013091C8
:1003A400270129DF47FE342C22E22093720022E247
:1003B4002ABB29BB2BEC2093A1004090A6005090AF
:1003C400A7002DE02A95F1F7222720930B01189519
:1003D40001E20EBF0FEF0DBF0F9307E60093C400B9
:1003E40000E00093C50000270093C00008E00093DC
:1003F400C10006E80093C2000F910F9305B1006895
:1004040004B90F9120EC20930A0122272093A50020
:100414002093A400209325012093240120E020931D
:10042400A000209320012BE82093A10028E0209332
:10043400210122272093A2002093220122E020936D
:10044400720022272093730020E137E23093A90041
:100454002093A80078949F93922D0E94B8009F91B6
:0C0464009F93932D0E94B8009F91F5CF4C
:00000001FF
