:020000020000FC
:040000000C947200EA
:1000E40001E20EBF0FEF0DBF04B1006804B905B102
:1000F4000F7705B90FEF07B907E60093C40000E0D6
:100104000093C50000E00093C00008E90093C1001B
:1001140006E80093C200789400E1102F23E030E158
:1001240040E31695279508F440E148B9406448B97E
:100134004F7B48B93A95A1F740E948B940E148B93D
:10014400402B48B908B93FEF3A95F1F70A9529F7DA
:02015400E3CFF7
:040064000C94AB004D
:1001560090E893B99091C600A8EBA093C1001895BA
:040068000C94B30041
:0C0166009093C600A8E9A093C100189572
:00000001FF
