:020000020000FC
:1000E400642F407C11F4552359F0462F652F5E7F11
:1000F40061F0507F99F0507CD1F0562F65E008955F
:10010400562F550F550F61E0089560FB57F9662788
:1001140046956795542B462F62E008954295542FD7
:100124005F70407F6295607F562B63E00895562F81
:10013400440F551F440F551F64E00895202F007C81
:1001440011F4112359F0022F212F1E7F61F0107F2B
:1001540099F0107CD1F0122F25E00895122F110F81
:10016400110F21E0089520FB17F922270695279502
:10017400102B022F22E008950295102F1F70007F8C
:100184002295207F122B23E00895122F000F111FB8
:10019400000F111F24E008951091C00015FFFCCF3B
:1001A4002093C60008952091C00027FFFCCF209122
:0401B400C6000895E4
:040064000C94DC001C
:1001B800112715B9F6DF222EF4DF022F27FC08C01D
:1001C800F999FECF01BD12BDF89A20B5E3DF189565
:1001D800E8DFF999FECF01BD12BD20BDFA9AF99A60
:1001E8001895F999FECF61BD52BDF89A40B50895AA
:1001F800F999FECF61BD52BD40BDFA9AF99A0895AA
:1002080090E1409101024030B9F4AAC040915502F2
:1002180050910202442341F440910302540F48F4E0
:1002280042E040930102E0C040910402541B08F4EC
:1002380055275093020203C0423009F46CC09A95C6
:1002480040910102403011F4AFC003C04230A9F41C
:100258004CC0F894F7C044274093B2004091000284
:100268004093B1008FEF78948823F1F7992339F7F9
:02027800C7CFEE
:040034000C943D01EA
:10027A0088278093B100189577274091050240306E
:10028A0019F0ECEFF5E002C0ECEEF5E04427E90FD7
:10029A00F41F8491DDCF49E05DE30E947200509320
:1002AA00290140932801686060932101A6E0B2E029
:1002BA004BED53E006D0AAE0B2E04BED53E001D09B
:1002CA009ECF483E63E0560710F401C0089569E0E6
:0C02DA006D936D936D936AE06C93089532
:0400BC000C9473012C
:1002E60000910502009500930502189540910E02B3
:1002F60040954695469546954695491718F4F5E076
:10030600ECEC02C0F5E0ECE9492F440FE40F44277A
:10031600F41F759184919ECF4091550250910E0223
:10032600442339F040910F02540F40F450930102D8
:1003360060C040911002541B08F4552750930E02DA
:100346007FCF451730F4A52EA41AA61640F0460F07
:100356000895A42EA51AA61610F0461B0895452F3B
:10036600089540915502442389F0509154024091DA
:10037600140260911202E5DF4093140240911302C9
:1003860060911102DEDF4093130209C0409113020F
:100396005091140260911102D4DF409313024095EC
:1003A60042954F704093150232CFB2E0A7E143E089
:1003B600499F4427A00DB41F8D917C914091150251
:1003C600491B0AF44195F5E0ECEBE40F4427F41FD2
:1003D6004491572F542311F4742B3CCF41E04093A2
:1003E600010244274093910058CF4427409391003F
:0C03F60021CF4091460240939100A0CF1F
:040080000C940102D9
:10040200A0914902B0914A021196A0934902B09379
:100412004A02009147020A9539F403E0009316025A
:1004220000931C020091480200934702A6E1B2E049
:1004320000E11C9116951D931C9117951D931C911B
:1004420017951D930A95A9F7189540E150E38695F3
:10045200779508F450E158B9506458B95F7B58B9A0
:100462004A95A1F750E958B950E158B9592B58B9F2
:0404720098B9F4CE73
:0400A8000C943B0277
:1004760000E400930B0100270093A1000093A50060
:100486000093A4000091720005FD39C0009150024E
:1004960010915102209052023090530220163106DC
:1004A60070F540904C0250904D0260904E02709054
:1004B6004F0222273FEF8301832E321B3230B8F0E2
:1004C600320F0215130599F048F42801282D060D60
:1004D600171D17950795830E8794EFCF3801382D92
:1004E600040D151D17950795820E8794E6CF00918A
:1004F6005402080D0795009354020FEF04C005E35C
:100506000A95F1F700270093550205B902E209BBE7
:1005160002E200937200002700930B0100914B0248
:060526000093A1001895EE
:0400A4000C94960220
:10052C002090A6003090A7000091A10006FF0AC001
:10053C0020925202309253020091A1000F7B009343
:10054C00A10018950091520210915302201A310A01
:10055C00209252023092530202E0009372001895DE
:10056C003E223E003E2000003A2A2E003E2A2A005F
:10057C003E0838002E2A3A002E2A3E003E2030003B
:10058C003E2A3E003E2A3A0000060200000000000F
:10059C000000000000000000E007E007E00700009A
:1005AC000000E007E007E00700000000000000008A
:1005BC000D06030100000000000000000000000018
:1005CC00FFFFFFFFFFFFFFFF1FF81FF81FF8FFFFE4
:1005DC00FFFF1FF81FF81FF8FFFFFFFFFFFFFFFFD4
:1005EC00000012003A2C3E0022223E002E2A3A0035
:1005FC000000120038283E003E223E00203E200023
:040000000C94060353
:10060C00F89441E24EBF4FEF4DBF40E844B9442748
:10061C0045B94FEF47B940E04093C50047E64093DA
:10062C00C40040E04093C00048E94093C10046E854
:10063C004093C20044274093A0004093A1004093F4
:10064C00A20042E24093720040E440930A0162E04F
:10065C0050E0C5DD40934C0263E050E0C0DD4093B8
:10066C004D0264E050E0BBDD40934E0265E050E08B
:10067C00B6DD40934F0266E050E0B1DD409350028E
:10068C0067E050E0ACDD4093510260E050E0A7DD44
:10069C00442F61E050E0A3DD542F0E947200606C87
:1006AC005093A9004093A80060934B020E943B0218
:1006BC0044274093B0004093B10042E04093700057
:1006CC0044274093020242E04093010244274093A6
:1006DC000E02442740939000409391004093920067
:1006EC0042E040937100A6E1B2E0662740E36D93CF
:1006FC004A95E9F741E04093470244274093490269
:10070C0040934A0244274093200140932101409397
:10071C00220142E04093730040E04093050240E424
:10072C005FE10E9472005093B3006093000241E0BD
:10073C004093030244E04093040248E040931002CB
:10074C0044E040930F0243E04093480248E040935A
:10075C00110243E04093120245E35CE0BDDC509390
:10076C00990040939800686060934602789446CD57
:00000001FF
