:020000020000FC
:1000E400642F407C11F4552359F0462F652F5E7F11
:1000F40061F0507F99F0507CD1F0562F65E008955F
:10010400562F550F550F61E0089560FB57F9662788
:1001140046956795542B462F62E008954295542FD7
:100124005F70407F6295607F562B63E00895562F81
:10013400440F551F440F551F64E00895202F007C81
:1001440011F4112359F0022F212F1E7F61F0107F2B
:1001540099F0107CD1F0122F25E00895122F110F81
:10016400110F21E0089520FB17F922270695279502
:10017400102B022F22E008950295102F1F70007F8C
:100184002295207F122B23E00895122F000F111FB8
:10019400000F111F24E0089590E1409101024423CF
:1001A400B1F44091160250910202442341F440916B
:1001B4000302540F49F44FEF4093010252C040919F
:1001C4000402541B08F455275093020201C037C09F
:1001D4009A9540910102442311F476C001C014C0E1
:1001E400F89475C044274093B200409100024093B4
:1001F400B1008FEF78948823F1F7992349F7CCCF96
:040034000C94020125
:1002040088278093B100189540910502403118F079
:10021400F4E0E4E602C0F4E0E4E4492F440FE40F20
:100224004427F41F759184914091050240954695A9
:10023400469546954695491708F47360D1CF409189
:10024400160250910502442339F040910602540FDE
:1002540041F45093010205C040910702541B08F475
:10026400552750930502B4CF409116024423E9F078
:100274006091080200900A02069EA0016095009019
:100284001502069E040E151E10920A0260910902C0
:1002940000900B02069EA001609500901502069E38
:1002A400040E151E10920B020EC0609108020090FD
:1002B4000A02069EA001609500900B02069E040EA1
:1002C400151E10920A02FFCF74E0882789CF40E1FF
:1002D40050E38695779508F450E158B9506458B9BD
:1002E4005F7B58B94A95A1F750E958B950E158B91C
:0802F400592B58B998B976CFD7
:0400A8000C947E0135
:1002FC0000E400930B0100270093A1000093A500DC
:10030C000093A4000091720005FD35C0009111020C
:10031C001091120220901302309014022016310614
:10032C0050F540900D0250900E0260900F027090AC
:10033C00100222273FEF8301832E321B3230B8F09C
:10034C00320F0215130599F048F42801282D060DDB
:10035C00171D17950795830E8794EFCF3801382D0D
:10036C00040D151D17950795820E8794E6CF809284
:10037C0015020FEF01C000270093160205B902E227
:10038C0000937200002700930B0100910C02009364
:04039C00A10018950F
:0400A4000C94D001E7
:1003A0002090A6003090A7000091A10006FF0AC08F
:1003B00020921302309214020091A1000F7B00934F
:1003C000A10018950091130210911402201A310A0D
:1003D000209213023092140202E0009372001895EA
:1003E0001091C00015FFFCCF2093C6000895209106
:0C03F000C00027FFFCCF2091C60008953C
:040064000C94FE01F9
:1003FC00F8DF222EF6DF022F27FCF3DF122D1F73FE
:10040C0026FC0EC0F999FECF01BD12BD27FC04C01D
:10041C00F89A20B5DFDF189520BDFA9AF99A18954D
:10042C00EF93FF93F80127FC03C02081D3DF01C0B9
:10043C002083FF91EF911895000000000000000050
:10044C00E007E007E00700000000E007E007E00736
:10045C000000000000000000000000000000000090
:10046C00C00FC00FC00F00000000C00FC00FC00FA6
:08047C00000000000000000078
:040000000C94420218
:1004840041E24EBF4FEF4DBF40E844B9442745B960
:100494004FEF47B940E04093C50047E64093C4009E
:1004A40040E04093C00048E94093C10046E84093CF
:1004B400C20044274093A0004093A1004093A200AF
:1004C40042E24093720040E440930A0146E44093C0
:1004D4000D0240E040930E024AEF40930F0240E0C9
:1004E400409310024CE24093110241E04093120207
:1004F4004AEA53E00E947200606C5093A900409352
:0E050400A80060930C020E947E01789445CE00
:00000001FF
