:020000020000FC
:040064000C94720086
:1000E400002705B9F999FECF0091C00007FFFCCFA6
:1000F4000091C60001BD0091C00007FFFCCF009134
:10010400C60002BD07FD09C00091C00005FFFCCF79
:10011400F89A00B50093C60018950091C00007FF37
:10012400FCCF0091C60000BDFA9AF99A1895F99986
:10013400FECFC1BDD2BDF89A00B508952196F7DF70
:100144000D933A95D9F70895F999FECFC1BDD2BD63
:1001540000BDFA9AF99A0895012F107C11F4222314
:1001640059F0102F022F2E7F71F0207FA9F0207CF0
:10017400E1F0202F05E008951123F1F0202F220F44
:10018400220F01E0089500FB27F900271695079533
:10019400212B102F02E008951295212F2F70107F2C
:1001A4000295007F202B03E00895202F110F221FBA
:0C01B400110F221F04E008950027089599
:040044000C94E00038
:1001C000E0910002F0910102019105BD002309F0C8
:1001D00000E203BB019107BD00270093810000935B
:1001E00085000093840001910093810001910093A8
:1001F0008900019100938800E0930002F0930102CE
:0202000018954F
:0400A8000C940101B2
:1002020000E400930B0100270093A1000093A500D6
:100212000093A4000091720005FD39C0009107020D
:10022200109108022090090230900A02201631062D
:1002320070F54090030250900402609005027090A5
:10024200060222273FEF8301832E321B3230B8F0A1
:10025200320F0215130599F048F42801282D060DD6
:10026200171D17950795830E8794EFCF3801382D08
:10027200040D151D17950795820E8794E6CF009100
:100282000B02080D079500930B020FEF04C005E364
:100292000A95F1F7002700930C0205B902E209BBA7
:1002A20002E200937200002700930B010091020208
:0602B2000093A100189565
:0400A4000C945C015B
:1002B8002090A6003090A7000091A10006FF0AC078
:1002C8002092090230920A020091A1000F7B00934C
:1002D800A10018950091090210910A02201A310A0A
:1002E8002092090230920A0202E0009372001895E7
:0400BC000C947C0123
:1002F8000027009321010093250100932401009118
:100308000D02003041F000E010911202209113021A
:100318003091110207C001E01091150220911602D8
:100328003091140200930D022093290110932801A3
:060338003093210118952D
:040080000C949F013C
:10033E00E0910A03F0910B033196E0930A03F093D8
:10034E000B03009108030A9531F5AF93BF9300910B
:10035E00A4000370ACE2B3E01127000F111FA00F31
:10036E00B11F3D902C90E7EDF2E010E12227220C18
:10037E00331C18F4ACE1B3E020E1222319F02A95E6
:10038E000D9101C00027008333961A9581F70091D5
:10039E000903BF91AF9100930803E7EDF2E000E18E
:1003AE001081169511931081179511931081179541
:1003BE0011930A95A9F7189570E14091CB0340303F
:1003CE00F1F433C140910C025091CC03442379F4E3
:1003DE004091CD03540F80F442E04093CB03F89448
:1003EE00F3E0E4E3EADE44274093910005C0409138
:1003FE00CE03541B08F455275093CC0303C0423050
:10040E0009F41DC07A954091CB03403009F478C0B1
:10041E00423099F562C0F89497C044274093B200D9
:10042E004091CA034093B1009FEF78949923F1F75E
:06043E00772341F7C1CF56
:040034000C94220204
:1004440099279093B100189540910C0250918F0216
:10045400442381F040919002540F88F440E040938B
:10046400CB03F894F3E0E6E6ADDE40910703409356
:10047400910005C040919102541B08F455275093F4
:100484008F02C5CF40910D02403039F0423001F166
:10049400AFE3B2E0C7E1D2E004C0AFE4B2E0CBE145
:1004A400D2E04427A70FB41F9C91472F4695469549
:1004B400C40F4427D41F4881440F440F572F53704F
:1004C400450FCFE5D2E0C40F4427D41F888109C06B
:1004D400AFE1B2E0472F440FA40F4427B41F9D910E
:1004E4008C919ECF40918F0242954F70741718F4EF
:1004F400B2E0A2EB02C0B2E0A2E9472F440FA40F7E
:100504004427B41F9D918C918BCFB2E0A8ED43E0BA
:10051400479F4427A00DB41F9D918C914091D60212
:10052400471B0AF44195B3E0ACE0A40F4427B41F81
:100534004C91582F842B542359F0F894F3E0E8E9B4
:1005440041DE41E04093CB0344274093910018C01F
:1005540067CF40E150E39695879508F450E158B988
:10056400506458B95F7B58B94A95A1F750E958B916
:1005740050E158B94FE0471B542B58B948B952CFF2
:1005840027C063E0483E5607E0F46BE069836A8362
:100594006B8370E066274436560720F07395445603
:1005A400560BF9CF772311F0799370E84A3018F09D
:1005B40073954A50FBCF772311F07F777993499352
:1005C400089569E06993699369936AE0688308957B
:1005D40042E040930D0240910F025091100250935B
:1005E40029014093280140910E0240932101CEE05D
:1005F400D0E09DDD402FCFE0D0E099DD502F609119
:100604000A0370910B034617570748F4062FCEE0F0
:10061400D0E09ADD072FCFE0D0E096DDAB01C7E153
:10062400D2E0AFDFCBE1D2E040910A0350910B035B
:10063400A8DFC7CE10C0451730F4A52EA41AA616FD
:1006440040F0460F0895A42EA51AA61610F0461BD6
:100654000895452F089540910C02442389F0509148
:100664000B024091D5026091D302E5DF4093D5029D
:100674004091D4026091D202DEDF4093D40209C0DB
:100684004091D4025091D5026091D202D4DF4093BC
:0C069400D40242954F704093D60299CEDC
:040000000C94500309
:1006A000F89441E24EBF4FEF4DBF40E04093C5008C
:1006B00047E64093C40040E04093C00048E94093BF
:1006C000C10046E84093C20040E844B9442745B918
:1006D0004FEF47B944274093A0004093A1004093B7
:1006E000A20042E24093720040E440930A01C2E05B
:1006F000D0E0A3E0B2E032E024DDC4E0D0E0A5E049
:10070000B2E032E01EDDC6E0D0E0A7E0B2E032E0C9
:1007100018DDC0E0D0E00DDD102F21960ADD202F7E
:100720001DDD006C2093A9001093A8000093020225
:10073000442743BB42E144BD442745BD4427409381
:100740008000409381004093820042E040936F001C
:10075000442740938F02C0E1D0E0A1E9B2E031E04C
:10076000F0DCC1E1D0E0A0E9B2E031E0EADCCBE6C8
:10077000D0E0A2E9B2E030E2E4DCCBE8D0E0A2EBEA
:10078000B2E030E2DEDC44274093900040939100D9
:100790004093920042E040937100A7EDB2E0CC2775
:1007A00040E3CD934A95E9F741E04093080344279D
:1007B00040930A0340930B0347E04093D6024FE770
:1007C0004093D4024093D502C3E5D0E0ACE0B3E05F
:1007D00030E1B7DCC3E4D0E0ACE1B3E030E1B1DC60
:1007E000C3E6D0E0ACE2B3E038E0ABDCC2E1D0E09D
:1007F000A9E0B3E031E0A5DCC3E1D0E0A2EDB2E0D6
:1008000031E09FDCC4E1D0E0A3EDB2E031E099DC5F
:10081000C5E1D0E08EDC102F21968BDC202F9EDCF2
:1008200020939900109398000860009307034AE012
:10083000C7E1D0E0A4E3B3E07CDC102F219679DCA3
:10084000202F8CDC21960D932D9373DC102F219695
:1008500070DC202F83DC21960D932D931D934A95F8
:1008600059F74AE0C3E2D0E0A6E6B3E062DC102F1D
:1008700021965FDC202F72DC21960D932D9359DC9D
:10088000102F219656DC202F69DC21960D932D9395
:100890001D934A9559F74AE0CFE2D0E0A8E9B3E0CA
:1008A00048DC102F219645DC202F58DC21960D9333
:1008B0002D933FDC102F21963CDC202F4FDC21961E
:1008C0000D932D931D934A9559F74427409320018A
:1008D000409321014093220142E04093730042E0A3
:1008E00040930D02CBEED0E0AFE1B2E030E229DC84
:1008F000CBEDD0E0AFE4B2E030E123DCCBE0D1E0FF
:10090000AFE3B2E030E11DDCCBEAD0E0AFE5B2E02E
:1009100030E317DCC8E0D0E00CDC102F219609DCB6
:10092000202F1CDC10930F022093100200930E0264
:10093000CAE0D0E0FEDB102F2196FBDB202F0EDC7F
:10094000109312022093130200931102CCE0D0E026
:10095000F0DB102F2196EDDB202F00DC1093150229
:10096000209316020093140244274093B000409352
:10097000B10042E04093700044274093CC0342E032
:100980004093CB03C1E4D0E0ADECB3E031E0D9DB80
:10099000C2E4D0E0AEECB3E031E0D3DBCFE3D0E0B3
:1009A000C8DB102F2196C5DB202FD8DB2093B300A6
:1009B0000093CA034AE0CBE1D1E0AFECB3E0B9DB8E
:1009C000102F2196B6DB202FC9DB21960D932D9396
:1009D000B0DB102F2196ADDB202FC0DB21960D93CD
:1009E0002D931D934A9559F7F894F3E0EFECECDB67
:0609F000F89407DCE8CCDE
:00000001FF
