:020000020000FC
:0400A8000C94720042
:1000E40000E400930B0100270093A1000093A500F6
:1000F4000093A4000091720005FD37C00091040232
:100104001091050220900802309009022016310651
:1001140060F54090000250900102609002027090DD
:10012400030222273FEF8301832E321BD1F03A953D
:10013400C1F0320F33950215130599F048F42801E4
:10014400282D060D171D17950795830E8794EDCF5F
:100154003801382D040D151D17950795820E8794C7
:10016400E4CF809206020FEF01C00027009307023C
:1001740002E200937200002700930B0103EC00934A
:04018400A100189529
:0400A4000C94C400F4
:100188002090A6003090A7000091A10006FF0AC0A9
:1001980020920802309209020091A1000F7B00937F
:1001A800A10018950091080210910902201A310A3D
:1001B800209208023092090202E00093720018951A
:1001C8001091C00015FFFCCF2093C6000895209120
:0C01D800C00027FFFCCF2091C600089556
:040064000C94F20006
:1001E40030E835B9F6DF222EF4DF022F27FCF1DFE9
:1001F400332735B9122D1F7326FC0EC0F999FECF93
:1002040001BD12BD27FC04C0F89A20B5DBDF1895A8
:1002140020BDFA9AF99A1895EF93FF93F80127FCF9
:1002240003C02081CFDF01C02083FF91EF91189597
:040000000C941A0141
:1002340041E24EBF4FEF4DBF40E844B9442745B9B2
:100244004FEF47B940E04093C50047E64093C400F0
:1002540040E04093C00048E94093C10046E8409321
:10026400C20044274093A00040E84093A1004427E3
:100274004093A20044274093A5004093A40042E287
:10028400409372004AE34093A90048E94093A800D0
:1002940040E440930A0146E44093000240E0409366
:1002A40001024AEF4093020240E0409303024CE211
:1002B4004093040241E0409305020E947200789446
:1002C4004FE05091060256955695569556955417FB
:1002D40019F05527662703C0509107026FEFF89471
:1002E40070E180E35695679508F480E188B98064ED
:1002F40088B98F7B88B97A95A1F780E988B980E1BC
:1003040088B9842B88B948B978945FEF5A95F1F786
:080314004A954F3FB1F6D4CF2A
:00000001FF
