:020000020000FC
:0200A400F6C0A4
:0200B80041C144
:0200A80009C18C
:0200BC0054C12D
:02000000F2C14B
:1000E4000F930027661F001F071B18F4070F88943F
:1000F40001C00894661F001F071B18F4070F88949B
:1001040001C00894661F001F071B18F4070F88948A
:1001140001C00894661F001F071B18F4070F88947A
:1001240001C00894661F001F071B18F4070F88946A
:1001340001C00894661F001F071B18F4070F88945A
:1001440001C00894661F001F071B18F4070F88944A
:1001540001C00894661F001F071B18F4070F88943A
:1001640001C00894661F702F0F9108959F9390917A
:10017400C00095FFFCCF9F919093C60008959F9374
:100184009591903011F0F2DFFBCF9F9108958F93FA
:100194006F937F939F93682F74E6A2DF862F60305E
:1001A40019F0962F905DE2DF672F7AE099DF6030D7
:1001B40011F4803019F0962F905DD8DF972F905D61
:1001C400D5DF9F917F916F918F91089524193509FF
:1001D40039F420E8422E27E12A95F1F700C008956A
:1001E400532E3FE0432E32E022325306E0F133E057
:1001F4002B345306C8F134E024375306B0F135E00C
:100204002D39530698F136E0263C530680F137E049
:100214002F3E530668F139E02831530650F13AE095
:100224002134530638F13BE02936530620F13CE0F3
:100234002239530608F13DE02B3B5306F0F03EE033
:10024400243E5306D8F030E12D305306C0F031E19E
:1002540026335306A8F032E12F35530690F0000000
:10026400000000000FC04A944A944A944A944A9465
:100274004A944A944A944A944A944A944A944A948A
:100284004A944A9420E124192A95F1F7089520917B
:10029400A1002B3889F04090A6005090A7002BE8CD
:1002A4002093A10092012659384E3093A90020933F
:1002B400A80022E229BB189520E820930B0128E02E
:1002C4002093A10022272093720024ED30E3309381
:1002D400290120932801222720932501209324011A
:1002E4002091A6003091A70071DF47FE242C22E262
:1002F4002093730022E229BB2ABB2BEC209321011B
:100304002EE02A95F1F70000222720930B018F930A
:1003140085E00E94C9008F919F939AE00E94B800E3
:100324009F918F93822D0E94C9008F919F939AE091
:100334000E94B8009F911895209121012B3889F0D3
:1003440040902601509027012BE82093210192012F
:100354002659384E309329012093280122E22ABBE2
:10036400189520E420930B0128E0209321012227F3
:100374002093730024ED30E33093A9002093A80068
:1003840022272093A5002093A400209126013091D8
:1003940027011CDF47FE342C22E22093720022E264
:1003A4002ABB29BB2BEC2093A1002EE02A95F1F760
:1003B4000000222720930B018F9384E00E94C90040
:1003C4008F919F939AE00E94B8009F918F93832D01
:1003D4000E94C9008F919F939AE00E94B8009F9158
:1003E400189501E20EBF0FEF0DBF05B7006805BFFA
:1003F40020EC20930A0122272093A5002093A40037
:10040400209325012093240120E02093A000209331
:1004140020012BE82093A10028E02093210122272A
:100424002093A2002093220122E02093720022272D
:100434002093730024ED30E33093A9002093A800A7
:100444000F9307E60093C40000E00093C500002763
:100454000093C00008E00093C10006E80093C200C6
:060464000F917894FFCF18
:00000001FF
