:020000020000FC
:0200A400ACC0EE
:0200B800E8C09E
:0200A800BFC0D7
:0200BC00FBC087
:020000008AC1B3
:1000E4000F930027661F001F071B18F4070F88943F
:1000F40001C00894661F001F071B18F4070F88949B
:1001040001C00894661F001F071B18F4070F88948A
:1001140001C00894661F001F071B18F4070F88947A
:1001240001C00894661F001F071B18F4070F88946A
:1001340001C00894661F001F071B18F4070F88945A
:1001440001C00894661F001F071B18F4070F88944A
:1001540001C00894661F001F071B18F4070F88943A
:1001640001C00894661F702F0F9108959F9390917A
:10017400C00095FFFCCF9F919093C60008959F9374
:100184009591903011F0F2DFFBCF9F9108958F93FA
:100194006F937F939F93682F74E6A2DF862F60305E
:1001A40019F0962F905DE2DF672F7AE099DF6030D7
:1001B40011F4803019F0962F905DD8DF972F905D61
:1001C400D5DF9F917F916F918F910895421A530AC1
:1001D4008F93852D0E94C9008F919F939AE30E946B
:1001E400B8009F918F93842D0E94C9008F919F9393
:1001F4009AE00E94B8009F9108952091A1002B38A5
:1002040089F04090A6005090A7002BE82093A1000D
:1002140092012856364C3093A9002093A80022E27C
:1002240029BB189520E820930B0128E02093A10016
:100234002227209372002CE534E430932901209383
:100244002801222720932501209324019201409024
:10025400A6005090A7008F9384E00E94C9008F915C
:100264009F9390E20E94B8009F91B0DF22E2209316
:10027400730022E229BB2ABB222720930B012BEC1B
:10028400209321011895209121012B3889F0409069
:100294002601509027012BE8209321019201285632
:1002A400364C309329012093280122E22ABB189569
:1002B40020E420930B0128E020932101222720939E
:1002C40073002CE534E43093A9002093A80022277E
:1002D4002093A5002093A400920140902601509001
:1002E40027018F9385E00E94C9008F919F9390E22C
:1002F4000E94B8009F916ADF22E22093720022E2FA
:100304002ABB29BB222720930B012BEC2093A100AD
:10031400189501E20EBF0FEF0DBF05B7006805BFCA
:1003240020EC20930A0122272093A5002093A40007
:10033400209325012093240120E02093A000209302
:1003440020012BE82093A10028E0209321012227FB
:100354002093A2002093220122E0209372002227FE
:10036400209373002CE534E43093A9002093A80073
:100374000F9307E60093C40000E00093C500002734
:100384000093C00008E00093C10006E80093C20097
:060394000F917894FFCFE9
:00000001FF
