:020000020000FC
:02004400DAC020
:0200040062C1D7
:0200080085C1B0
:02000000AEC18F
:1000E4000F931F9310E805B1012705B91F910F91D4
:1000F40008950F9305B1006805B90F9108950F9302
:1001040005B1007005B90F9108950F930027661F7C
:10011400001F071B18F4070F889401C00894661F7A
:10012400001F071B18F4070F889401C00894661F6A
:10013400001F071B18F4070F889401C00894661F5A
:10014400001F071B18F4070F889401C00894661F4A
:10015400001F071B18F4070F889401C00894661F3A
:10016400001F071B18F4070F889401C00894661F2A
:10017400001F071B18F4070F889401C00894661F1A
:10018400001F071B18F4070F889401C00894661F0A
:10019400702F0F9108959F939091C00095FFFCCF0D
:1001A4009F919093C60008959F939591903011F07C
:1001B400F2DFFBCF9F9108958F936F937F939F936B
:1001C400682F74E6A2DF862F603019F0962F905DB9
:1001D400E2DF672F7AE099DF603011F4803019F0A4
:1001E400962F905DD8DF972F905DD5DF9F917F91FB
:1001F4006F918F91089541FD33C00F9300910501D4
:100204000260009305010DB300700DBB03E00CBB4D
:100214000091690000700C60009369000DB30260E6
:100224000DBB43FF15C02253304050F02C3201E087
:10023400300740F40AED309F502C209F510C08C029
:10024400552406C0203401E0300710F40FEF502E7F
:10025400009105010070009305010F9142E018958B
:100264000F93009105010160009305010DB3007027
:100274000DBB03E00CBB00916900007003600093A8
:1002840069000DB301600DBB43FF15C0225330401C
:1002940050F02C3201E0300740F40AED309F402C3E
:1002A400209F410C08C0442406C0203401E03007DC
:1002B40010F40FEF402E009105010070009305012A
:1002C4000F91442718950F9342FD13C02091840089
:1002D4003091850044600DB300700DBB009169003E
:1002E40000700260009369000DB301600DBB0F91B3
:1002F40018951F930091840010918500021B130B25
:1003040098011F9148600DB300700DBB0F911895B3
:100314000F9342FD13C02091840030918500446006
:100324000DB300700DBB009169000070086000936C
:1003340069000DB302600DBB0F9118951F930091D6
:10034400840010918500021B130B98011F914860D3
:100354000DB300700DBB0F91189501E20EBF0FEFA6
:100364000DBF00E4009364000FEF0093650005B730
:10037400006805BF0F9307E60093C40000E00093F4
:10038400C50000270093C00008E00093C10006E800
:100394000093C2000F910F9305B1006804B90F9147
:1003A4000F93009104010360009304010AB10070EB
:1003B4000AB9002700938400009385000EE400939B
:1003C400890000E20093880002E000936F0000E0DF
:1003D400009380000BE00093810000E00093820012
:1003E4000F910E94810078948F93842D0E94DE00E7
:1003F4008F919F939AE30E94CD009F918F93852DB7
:100404000E94DE008F919F939AE00E94CD009F91FD
:02041400EBCF2C
:00000001FF
