:020000020000FC
:0200A40084C016
:0200B800BFC0C7
:0200A80097C0FF
:0200BC00D2C0B0
:020044003EC1BB
:0200000081C1BC
:1000E4002419350931F420E8422E27E12A95F1F745
:1000F40059C0532E3FE0432E30E022345306F8F12A
:1001040030E02F355306E0F130E02C375306C8F1C8
:1001140030E029395306B0F130E0263B530698F11C
:1001240030E0223D530680F130E02F3E530668F163
:1001340031E02C30530650F131E02932530638F1C6
:1001440031E02634530620F131E02336530608F11A
:1001540031E020385306F0F031E02D395306D8F061
:1001640031E02A3B5306C0F031E0273D5306A8F0A6
:1001740032E02E3E530690F020E8422E14C04A94FA
:100184004A944A944A944A944A944A944A944A947B
:100194004A944A944A944A944A944A9420E12419E9
:1001A4002A95F1F70895000008952091A1002B38B5
:1001B40089F04090A6005090A7002BE82093A1005E
:1001C4009201245B334E3093A9002093A80022E2CD
:1001D40029BB189520E820930B0128E02093A10067
:1001E40022272093720020E137E2309329012093E3
:1001F4002801222720932501209324012091A60081
:100204003091A7006DDF47FE4092000222E2209366
:10021400730022E229BB2ABB2BEC209321014090DE
:100224002601509027012DE02A95F1F722272093EB
:100234000B011895209121012B3889F0409026015B
:10024400509027012BE8209321019201245B334E27
:10025400309329012093280122E22ABB189520E437
:1002640020930B0128E0209321012227209373007F
:1002740020E137E23093A9002093A800222720939D
:10028400A5002093A400209126013091270128DFA6
:1002940047FE4092010222E22093720022E22ABB2E
:1002A40029BB2BEC2093A1004090A6005090A700FE
:1002B4002DE02A95F1F7222720930B011895662744
:1002C40060938100609385006093840062E0609392
:1002D4001600A03262E0B60781F06D916093890048
:1002E4006D91609388006D91662311F067BD64E0A1
:1002F40065BD6CE0609381001895662765BD18950F
:1003040001E20EBF0FEF0DBF0F9307E60093C40089
:1003140000E00093C50000270093C00008E00093AC
:10032400C10006E80093C2000F910F9305B1006865
:1003340004B90F9120EC20930A0122272093A500F1
:100344002093A40020932501209324012BE82093DB
:10035400A10028E02093210122E0209372002227AB
:100364002093730020E137E23093A9002093A80082
:1003740063B3606263BB62E164BD62E060936F007B
:100384007894F89467E060930B0263E560930C0241
:1003940068E260930D0267E060930E0263E5609388
:1003A4000F0260E06093100267E06093110263E55E
:1003B4006093120262E36093130267E06093140295
:1003C40063E56093150260E06093160267E0609352
:1003D400170263E5609318026CE36093190267E007
:1003E40060931A0263E560931B0260E060931C0251
:1003F40067E060931D0263E560931E0264E6609308
:0C0404001F02B2E0ABE00E946101FFCFDC
:00000001FF
